:020000041000EA
:10000000002008205D0100101B0100101D010010E0
:100010001101001011010010110100101101001058
:100020001901001019010010190100101F01001022
:10003000110100101901001021010010230100100E
:100040001101001011010010110100101101001028
:100050001101001011010010110100101101001018
:100060001101001011010010110100101101001008
:1000700011010010110100101101001011010010F8
:1000800011010010110100101101001011010010E8
:1000900011010010110100101101001011010010D8
:1000A00011010010110100101101001011010010C8
:1000B00011010010110100101101001011010010B8
:1000C00011010010110100101101001011010010A8
:1000D0001101001011010010110100101101001098
:1000E0001101001011010010110100101101001088
:1000F0001101001011010010110100101101001078
:100100001101001011010010110100101101001067
:10011000EFF30580103800BE00BE00BE00BE00BE7A
:1001200000BE00BEF2EB8871683B0010883B0010F7
:10013000A001001090A31AE7D3DEFFFF42012110B7
:10014000FF01000074470000793512AB4FF000004A
:100150001E49086006C881F3088810474FF05040D8
:10016000006810B14FF00000F2E70DA40ECC00299A
:1001700002D000F012F8F9E71549164A002000E015
:1001800001C19142FCD11449884714498847144958
:10019000884700BEFDE701C901C29A42FBD3704700
:1001A000883B001010010020340E0020AC480010E5
:1001B0000000082000000820AC48001000100820B3
:1001C00000100820000000007047000008ED00E06B
:1001D000340E0020081B00203D18001035020010CE
:1001E00035180010F8B500BF064B0749C91A891029
:1001F00048BF0131491003D0044B0BB101481847E7
:10020000704700BF340E0020340E002000000000B4
:1002100008B5054B1BB105490548AFF30080BDE8A3
:100220000840FFF7E1BF00BF00000000B81A00203F
:10023000183900102DE9F047654CA0B04FF4E131BA
:10024000204601F00DF80221042000F09BF9022164
:10025000052000F097F9206B5E4D00F4404000232C
:10026000012208212863204601F07CF8192000F0C3
:10027000A7F94FF00108192348EC443000F0B8FF0B
:10028000554D564EC5E9000100F0B2FFC6E9000128
:1002900003F0FEF90021084602F0DAFE4FF00009F3
:1002A0006F46DFF840A14FF0FF30002101F07EFEE5
:1002B000002002F059FC002861D1A06910F0100064
:1002C00053D102F03BFC00284FD0A26912F010027B
:1002D0004BD139460132A369D806FCD4236801F812
:1002E000013BA369DB0601D4802AF3D13946002003
:1002F00002F0D8FC002002F08DFC00F079FF47F2FC
:1003000030524FF0FF3E6FF0004C821841F1000375
:1003100096457CEB03013CBF724663461921C5E953
:10032000002348EC40102E49486A834223D8896A4A
:10033000914201D283421ED000F05AFFD6E9002339
:10034000DFF8A4C0821A61EB0303944579EB030341
:10035000A9DA9AF80030192283F001038AF80030F4
:1003600043EC4020C6E900019DE71D49D5E9002383
:10037000486A8342DBD9192348EC403093E7802256
:100380003946002002F0FCFB002896D03A46391886
:10039000A3699B06FCD412F8013B91422360F7D17C
:1003A00000F026FF47F230534FF0FF3C6FF0004261
:1003B000C01841F10003844572EB03013CBF1346B2
:1003C0006046C5E90003192348EC403075E700BFDB
:1003D0000000074000100740380E002000100020E9
:1003E00000000B40031B00203F420F0000487047F5
:1003F000C83A0010004870477C3A001028B32DE935
:10040000F04F03288BB029D0042800F2B3805A4B58
:1004100053F82040204603F009FAC0B21F280546D1
:10042000564A28BF1F2550B100231146601E0133D4
:1004300010F8014FDBB29D4221F8024FF7D86B1C38
:10044000DBB25B0043F440738FE040F209414FF4AC
:1004500041734A4A49485180138070470025AA4693
:1004600008A801F047FBAE469DF82160A946029618
:100470009DF82260AC4604969DF82460404905969C
:100480009DF82560A84606969DF826609DF82040B8
:1004900007969DF82760394A0196049E28464FEA40
:1004A000161B11F80BB006F00F068E5D2F46039455
:1004B0006BF30F059DF8234066F31F45C2F80A5001
:1004C00025094D5D04F00F040C5D65F30F0A059DD1
:1004D00064F31F4A2C090C5D40F2223364F30F0EC3
:1004E00005F00F040C5D069D64F31F4E2C090C5D96
:1004F000C2F80EA064F30F0905F00F040C5D079D10
:1005000064F31F492C090C5DC2F812E064F30F0C70
:1005100005F00F04C2F816900C5D019D64F31F4CAA
:100520002C090C5DC2F81AC064F30F0805F00F0423
:100530000C5D039D64F31F482C090C5DC2F81E80FE
:1005400064F30F0005F00F040C5D64F31F40029C80
:10055000C2F802002009085C60F30F0704F00F00E6
:10056000095C61F31F47C2F80670044813800BB0A2
:10057000BDE8F08F0020FAE7643A0010C00F0020B9
:100580001839001010B44FF480740C4B53F820202D
:1005900003EB8003C00082F0400200F1804003F5CD
:1005A000805C02F0C00200F5203003F54053CCF827
:1005B000002041601C605DF8044B704704800340DC
:1005C00030B44FF0000343EC440043EC40000525F9
:1005D0004FF480740B4BC20053F8201003EB8000E3
:1005E00081F0400102F1804303F5203301F0C002A5
:1005F00000F5805100F540500A605D60046030BC39
:10060000704700BF048003400FB400B583B0049C62
:10061000074801F039FA3CB105A92046019101F0E3
:10062000EFF8044801F030FA012001F001F900BFB1
:100630005C3900106C39001070B58646EFF31085F8
:1006400072B6124CD4E8CF6F0120002EFAD1C4E864
:10065000460F002EF6D1BFF35F8F4FF0010CC80894
:1006600001F007030CFA03F31EF800C01CEA0306AE
:1006700008D14CEA030C0EF800C0C4E88F6F85F374
:10068000108870BD1046FFF7BFFF00BF3715002070
:10069000F8B5EFF3108772B61C4ED6E8CF5F012491
:1006A000002DFAD1C6E8454F002DF6D1BFF35F8F7C
:1006B0009A421BD8012502E00132934222D3D4088A
:1006C00010F804E002F0070C05FA0CFC1EEA0C0F0F
:1006D000F2D14EEA0C0E00F804E010460023C6E802
:1006E0008F3F87F31088984207DBF8BD0023C6E8E8
:1006F0008F3F87F310884FF0FF300029F5D0069820
:10070000FFF782FF4FF0FF30E8E700BF371500200A
:10071000044A1078431CDBB2182B28BF1023137037
:10072000704700BFA80D002010B5054C82B00146EF
:100730001F23182200940348FFF7AAFF02B010BD40
:1007400070390010741600204FF0E022936843F0D7
:1007500000539360704700BF0021044B03F1200257
:10076000C3E88F1F01339342FAD170472C15002044
:100770004FF0E0234FF08032C3F80024C3F8042484
:10078000C3F80824C3F80C24C3F81024C3F81424B5
:10079000C3F81824C3F81C24C3F82024C3F8242465
:1007A000C3F82824C3F82C24C3F8302462B6704759
:1007B000012300F01F029340400941B1800000F185
:1007C000604000F56140C0F8803103607047024A24
:1007D000203042F82030704700E100E0F8B50D46C7
:1007E000EFF3108772B6124ED6E8CF2F0123002AFE
:1007F000FAD1C6E8423F002AF6D1BFF35F8F0D4B16
:1008000000F110049B680C4A53F82430934203D043
:10081000994201D000F0DCFE064B9B6843F824505F
:10082000BFF35F8F0023C6E88F3F87F31088F8BDC2
:100830003515002000ED00E0110100102DE9F04F0A
:1008400081468B46164683B0EFF3108372B6DFF80D
:10085000D0A10093DAE8CF1F01230029FAD1CAE81A
:10086000413F0029F6D1BFF35F8F664B93F90040FB
:10087000002CC0F2A080644D04EB440705EB870810
:1008800098F8061009F110091970604BBF009B68B9
:1008900053F829006300411B2F292FD95C49884256
:1008A00040F0A4801C445B4B02372F44043BDB1B0D
:1008B000C3F34A036FEAC3434FF421416FEAD343C2
:1008C00025F8241005EB840463804BF60153A380C4
:1008D000FF2348F00100E671C4F808B0A3714B4B48
:1008E0009B6843F82900BFF35F8F0023CAE88F3F5E
:1008F000009B83F3108803B0BDE8F08F20F0010E59
:100900009EF80710B1422ED84FF42143EB53414BD0
:10091000B91C2944043B04375B1A2F44AEF104018F
:10092000C91BC1F34A043C49C3F34A030B432143A7
:10093000A8F804103949A8F802304AF6AA207346EC
:100940005B1B5B415843000D88F8076088F8060080
:10095000C8F808B048F00100CEF80010BFE7D17920
:10096000B1422ED996469EF906C00CEB4C02BCF162
:10097000000F05EB8202F2DA4BF601510EF1040290
:10098000A8F10407BF1AC7F34A076FEAC7476FEA1F
:10099000D7478EF8064003EB0408204C05EB88038C
:1009A000AEF8047045F82840998083F806C0DE71DF
:1009B000C3F808B093E700F00BFE124B93F9004028
:1009C00059E7724632F8041F490514D4491502311B
:1009D00002EB410101916FF00701C91B019F491B07
:1009E0003944C1F34A0141F46041C9E7019300F081
:1009F000EFFD019B56E701F5FF1101F5FF511F3196
:100A0000E4E700BF041B0020AC0D002000ED00E077
:100A100011010010DC0D002000E0FFFF01488047BD
:100A200035150020F0B5EFF30585EDB2EFF3108C2E
:100A300072B62649D1E8CF2F0123002AFAD1C1E8A6
:100A4000423F002AF6D1BFF35F8F214E40F0010EE6
:100A5000B4684AF6AA2354F825701E4A0446A41A1C
:100A6000644163431B0D77455BB21BD092F906408E
:100A70009C421CD092F912409C4223D092F91E4015
:100A80009C4221D092F92A409C4208BF03240FD0F7
:100A9000114A0024157813708571C1E88F4F8CF3CB
:100AA0001088F0BDB2680D4C42F82540F0E70024F4
:100AB00004EB440402EB8402FF2494714BF60154CE
:100AC0009480E5E70124F3E70224F1E735150020DF
:100AD00000ED00E0AC0D0020041B0020110100100F
:100AE000014B0B44036070472C15002070B5104C6F
:100AF000104DAC420ED2FF26236863B1FFF708FE0B
:100B000001462046FFF7ECFFA680BFF35F8F083455
:100B1000AC42F1D370BDFFF7FBFD01462046FFF765
:100B2000DFFF2671BFF35F8F0834AC42E4D370BDA2
:100B30002C0E0020340E002010B50446FFF7E8FD0F
:100B400001462046FFF7CCFFFF232371BFF35F8FE1
:100B500010BD00BF10B504460120FFF7E5FD034BB3
:100B600003442360BFF35F8F10BD00BF2C1500202E
:100B70000D4B1A68EFF3108172B6D2E8CFCF012087
:100B8000BCF1000FF9D1C2E84C0FBCF1000FF4D159
:100B9000BFF35F8F00221B68C3E88F2F81F310889B
:100BA00040BF002000217047F81A0020000000001C
:100BB0002DE9F04F2DED028B85B0EFF30583DBB20D
:100BC000103B9A0818BF01224FF0010103F0030BFC
:100BD00018BFAF4DAF4B08BFAF4D0BEB820253F8C0
:100BE000226001FA0BF205F541539FEDA78B0192AC
:100BF0005A602FE0B3881C0440F19380B379002B36
:100C000040F0DD80B6F90820002AC0F21E81736929
:100C100002EB420203EBC203D3E90247B7F1FF3F05
:100C200008BFB4F1FF3F0ED005EB8B01AB6A0A6938
:100C3000D21AE31A934205D301232A6A03FA0BF36B
:100C4000134200D10C61284600F0CAFAA042B94113
:100C5000C0F2FB80B6F90830019A002B0093EA63DA
:100C6000C8DBD6F8148003EB4309284608EBC90714
:100C7000D7E9024A00F0B4FAA04271EB0A01B9DBED
:100C8000BAF1000FC0F2C380D7E90431834A93421E
:100C900000F0ED807A88B6F9080092B242EA00408E
:100CA000984702460B4652EA030100F0B080002B41
:100CB00080F2D180B4EB020E6AEB030A38F93930C6
:100CC000C7E902EA002B95DB716903EB430201EBF4
:100CD000C202D2E90270BE457AEB000C4FEA430231
:100CE00088DBB4462CF8083F06E003EB430001EB39
:100CF000C0005A00D0E90270BE451A447AEB0000E9
:100D000001EBC20404DB31F93230A446002BECDAEB
:100D100028F83930009BACF80030B3881C043FF54C
:100D20006DAF3369EFF3108272B6D3E8CF0F0121B4
:100D30000028FAD1C3E8401F0028F6D1BFF35F8F27
:100D40004FF6FF74B0880023316900B2B480C1E867
:100D50008F3F82F310889842FFF650AF0746A946AE
:100D6000746906F1080807EB470E04EBCE03D3E9DC
:100D70000250B6F90830C446002B13DBB246009788
:100D800004E034F936309446002B09DB03EB4306CC
:100D900004EBC602D2E90271BD4270EB0101F0DA48
:100DA0005646009FACF8007034F93E7024F83E308F
:100DB000002FD8DAB3794D46002B3FF423AF002340
:100DC000B371B6F9083006F10808581C3DD01A4630
:100DD000776903E08046591C3FF416AF03EB4301EB
:100DE00007EBC100B0F802C01C461CF4004F9E4641
:100DF00037F93130EED0944280ED028B05D0A8F85F
:100E00000030328927F8312034817246E3E738F820
:100E1000393033813369EFF3108272B6D3E8CF0FE4
:100E200001210028FAD1C3E8401F0028F6D1BFF302
:100E30005F8F7388316928F83930009B73800023F5
:100E4000C1E88F3F82F31088D4E640BF05B0BDEC07
:100E5000028BBDE8F08F2846CDE9022300F0C0F9EF
:100E6000029A039B10EB020E43EB010A26E70846A9
:100E70000B69029198470028C9D00299D1E9002353
:100E800011E700BFAFF30080FFFFFFFFFFFFFFFF91
:100E900000800B40D01A002000000B40B10B001066
:100EA0002DE9F84F364C25692DB1BDE8F84F0A21E0
:100EB0003448FFF715BEDFF8E4800321404600F018
:100EC0007DF90326C4F80C80FFF722FC4FF0504C4C
:100ED0002D4B267003442361DCF800300F21637032
:100EE000636961801D834FF00405A3F878504FF0CB
:100EF0000505A3F890504FF00605A3F8A8504FF051
:100F000007050E214FF6FF7208274FF00A0EA3F8CF
:100F1000C0504FF001094FF00C0C4FF0020B4FF096
:100F2000090A0D204FF00B05A3F868111749A2809C
:100F3000A3F808E1A160A3F848B0A3F8F0A0A3F8D3
:100F40002051A3F838C1A3F85001A3F83090A3F8BA
:100F50006060A3F8D8701A800D4B3046C8F8207036
:100F60000C49DC60FFF73AFC49463046FFF720FCAD
:100F7000094B0A211F640348BDE8F84FFFF7B0BDD5
:100F8000F40D0020F81A00202C150020FFFF10009F
:100F9000D01A0020B10B001000200B4000000B40C5
:100FA0000146F0B50069EFF3108772B6D0E8CF5F65
:100FB0000124002DFAD1C0E8454F002DF6D1BFF332
:100FC0005F8FB1F902E04C690EEB4E0CBEF1000FE1
:100FD0004FEACC05086904EBCC0C3CDB665B4E8029
:100FE0000026C0E88F6F87F31088BCF80200CCE9B8
:100FF00002230130C0F30E00012838BF0120059BF9
:10100000ACF80200CCF81030069B40EA0E40CCF859
:1010100014300B69EFF3108272B6D3E8CFCF0127FB
:10102000BCF1000FF9D1C3E84C7FBCF1000FF4D143
:10103000BFF35F8F8B886353A1F804E00B69C3E8AB
:101040008F6F82F310880122CB68097803F5015372
:101050008A405A60F0BD0023C0E88F3F87F31088B4
:101060004FF0FF30F0BD00BF03464089B0EB214F89
:1010700037DD58690A1402EB420210B500EBC200DA
:101080001C69EFF3108C72B6D4E8CFEF0122BEF1E9
:10109000000FF9D1C4E84E2FBEF1000FF4D1BFF319
:1010A0005F8F428889B292B28A4207D000221B69C0
:1010B000C3E88F2F8CF31088002010BD42F400424B
:1010C00042800121002218699971C0E88F2F8CF3AA
:1010D00010881C78DA68084602F50153A14059606F
:1010E00010BD0020704700BF2DE9F04306460D46B5
:1010F00083B0EFF30584E4B23CB12D4B5A6AAA42A7
:101100001CD2002003B0BDE8F0832A4FD7F80C9022
:1011100097F80080484600F063F808F1040859F891
:1011200028301B1A301A65EB0101984271F1000159
:1011300010DB20BF1E4B5A6AAA42E2D314BF01241F
:1011400000249B6AB34234BF204644F0010003B040
:10115000BDE8F08300F04CF8864265EB0101002900
:1011600014DB154B3846CDE9003432462B46FFF7E9
:1011700017FF011E0ADD0E4B5A6AAA4216D39B6A5C
:10118000B34211D30B48FFF76FFFB6E7084B5C6A19
:10119000AC42B6D3641B18BF01249B6AB34234BF70
:1011A000204644F00100ADE7AA42EBD120BFE9E7B9
:1011B00000000B40F40D0020710B001010B4054B23
:1011C000054C064AA04214BF1846581C5DF8044B53
:1011D000FFF732BA7816002000800B408C390010DF
:1011E0000346416A0A46986A596A8A42FAD17047A8
:1011F000034B596A0A46986A596A9142FAD1704774
:1012000000000B4030B4154A536A9C46946A536AF6
:101210006345FAD1021959414FF0000528BF012555
:101220000E4B5B6AB5B15A1C08BF1A4608D04FF086
:10123000FF310A460948436A8B42FCD38B4207D1EF
:10124000064902E0486A984202D1886A9042F9D37E
:1012500030BC70479942EDD8F0E700BF00000B406A
:10126000F8B5054606200E4600F01CF9002842D0CD
:10127000354A3648954214BF4FF080624FF0006205
:10128000334B344902601A608C6832EA0404FBD1A3
:101290002D4B4FF48071EB1AB3FA83F32E4A5B099E
:1012A000062022F8131000F0FDF8C300B3FBF6F39C
:1012B0000133DA0920D1402601216962AA622F6B2D
:1012C000FB0722D42B46002253F82C1F062003F5DF
:1012D000805422602F6300F0E5F840F201310322D0
:1012E0008000B0FBF6F0EB6A83F0700303F07E033E
:1012F00023602963AA64F8BD4FF6FE718A421BD9A8
:1013000022464FF6FF71154ED7E740F2013205F540
:1013100040531A636B6AAC6A062004EB831400F036
:10132000C1F80F4BA402A3FB0023DB0A0021B4FB8E
:10133000F3F0FFF767FFC5E7C3F34503114603EB7F
:1013400082161A46B9E700BF00800740002002401D
:101350000030024000000240FC1A0020C0FF3F00A5
:10136000757B2B8F013A0539D200F8B5054642EA64
:10137000411443B1A3F10103B3FA83F35B0944EAD7
:10138000830343F002042E6BF3070AD42B4653F871
:101390002C2F624002F06E0203F580531A602E6318
:1013A000F8BD40F2013205F540531A636B6AAF6A2B
:1013B000062007EB831700F075F8054BBF02A3FB6F
:1013C0000030C00A0021B7FBF0F0FFF71BFFDDE79C
:1013D000757B2B8F00EB400C4FEA8C0C0CF1804C92
:1013E0000CF5803CF0B51646DCF80420051FB2F57C
:1013F000803F38BF4FF48032EDB238BFCCF80420C4
:10140000012D2AD94FF40067254C0CF54052176086
:1014100054F82020B2B9DCF80020012D82EA4612EF
:1014200002F0E0020CF5805632602AD94FF40061D8
:1014300044F820304FF480330CF500521160CCF8A2
:101440000430F0BD6769B7FBF2FE0EF1010E0EEB42
:101450004E0EBEF1030EFCD2DDE70129D2D10324EA
:101460000CF540521460DCF80820D207FBD5DCF8FC
:1014700000200B4C82EA461202F0E0020CF5805686
:1014800032600122DCF800504D4005F00305356064
:1014900002FA01F1DCF808200A42FBD0C6E700BFDF
:1014A0007C160020014B53F8200070477C1600206A
:1014B00070B4039D04682D0345EA03451B4B002CC3
:1014C000B3FBF1F3B2FBF3F61FDB194A194B904261
:1014D00014BF4FF480424FF40042174C1A6003F5DA
:1014E00080531A60A36832EA0303FBD1212200F57E
:1014F00040530433016086601A600268002AFCDAF7
:101500000822C5601A6070BC7047036803F03F038F
:101510008B42DAD18368C3F30B03B342D5D1C368DE
:1015200003F4EE23AB42D0D1EDE700BF001BB700C0
:10153000008005400020024000000240012300EB33
:101540004000800000F1804000F58410416003609D
:10155000704700BF0023DB8A002242E800F25202FB
:1015600001D4102118470421184700BF034AD2F8BC
:101570002838002BFBD0BFF35F8F704700000E4070
:101580000021044B044ABFF35F8F43F8041B9342CE
:10159000F9D170470C080E402C080E4010B44FF4DF
:1015A0008D704FF42A64064A064B07491460D060D8
:1015B00019605368002BFCDA5DF8044B704700BFDC
:1015C0000080044000A0044000B0FA00704700BF53
:1015D00008B50148FFF718F8B039001038B5054CC8
:1015E000054DAC4204D254F8043B9847AC42FAD3C0
:1015F00038BD00BFD03800101039001010B40748B3
:10160000074C084B084A094904601A608B6832EAA3
:101610000303FBD15DF8044B704700BF002002407C
:101620007F3BEFEF00300240F6FFF3030000024083
:10163000044BDB6CB3F5004F03D14FF48022024B17
:10164000DA64704700001150002011504FF0E02282
:10165000044BD2F8881D0B43C2F8883D10EE3004CD
:10166000704700BF030330006FF06041044B054A30
:1016700019609368DB4333F06043FAD1704700BFD1
:10168000003002400000024010B545F25320FFF741
:1016900061FFBDE8104003460420184710B545F22D
:1016A0005320FFF757FFBDE81040034601201847BD
:1016B000FFF752B81449154B70B55C1AA610442EAA
:1016C000324628BF4422124D9200284602F038F8D4
:1016D000B4F5867F13D80F4AC6F1440012D02B19F7
:1016E000410803EBC101C3E9002208338B42FAD160
:1016F000C30704D520F00100304445F82020064BF4
:101700009D6070BD4320F8E700000010100100103C
:10171000000000201101001000ED00E0002370B572
:101720002B4C82B0C4F88430FFF738FF0122294BDC
:10173000DA63636C012BFCD10321264A244B11632D
:101740009C6B012CFCD10226052521460523224A4B
:1017500022480096FFF7ACFE21462B46204A21483E
:101760000095FFF7A5FE0022042031461E4BFFF72F
:1017700031FE2146284600221C4BFFF72BFE00229B
:10178000082011461A4BFFF725FE002209201146BA
:10179000174BFFF71FFE002206201146134BFFF7E1
:1017A00019FE0022114B07201146FFF713FE0420FB
:1017B000FFF778FE00240F4BA3FB0035AD0CE0B221
:1017C00029460134FFF7BAFE062CF8D102B070BDED
:1017D0000000014000300140002F68590000054022
:1017E000008C864700800540001BB70080D1F008C0
:1017F000006CDC0283DE1B4300B9704700F002B9C5
:1018000010B5094B84B01C684CB1034600914FF0F1
:10181000FF3203A90548A047012004B010BD00F025
:1018200033F9204604B010BDB01A0020F91700109B
:1018300000BEFDE708B5FFF7FBFF00BF38B5064C5B
:10184000064DFFF7CBFEAC4204D254F8043B984758
:10185000AC42FAD338BD00BF10390010183900105F
:1018600003680846114618472DE9F0411546427DA8
:1018700007468846002A46D0002D1DDD0B780A2B2E
:1018800023D0012D4FF0000C18D04646012416F845
:10189000012F21460A2A04F1010422D0A542F6D1E3
:1018A00065450BDC08EB050313F8013CA3F10D03C0
:1018B000B3FA83F35B093B75BDE8F0813B68A5EBA8
:1018C0000C0108EB0C009847ECE7037D002BD8D106
:1018D000036802210F489847012DE3D04FF0010C17
:1018E000D3E716F8013C0D2BD8D08C4508EB0C0043
:1018F000A1EB0C0101DA3B689847022105483B68DF
:101900009847A446CAE7294640463B68BDE8F041EF
:10191000184700BF303B00102DE9F04782B00D465C
:1019200091461C460646FFF763FC4FF0FF3C6FF004
:1019300000472E4A821841F10003944577EB0301DA
:101940003CBF62463B462A4801F0BEFF6B1C804606
:1019500040D00CB3274F284B1C68B4B1B9F1000F2D
:101960001CD1DFF89C9001E0246974B12368002B3E
:10197000FAD0D9F800300BB19C42F5D120462A4666
:101980003146B8472469002CF0D1B8F1000F26D1B8
:10199000284602B0BDE8F087184FDCE74FF00A0A8E
:1019A000DFF85C9002E02469002CEED02368002B65
:1019B000F9D0D9F800300BB1A342F4D12A46314610
:1019C0002046B847012220460DF107018DF807A0F7
:1019D000B847E8E7304601F029FF0546B9E7044873
:1019E00001F066FF284602B0BDE8F08740420F00D4
:1019F0002C0E002069180010A41600206118001099
:101A0000AC160020F0B583B006468DF80700FFF74E
:101A1000EFFB4FF0FF356FF00044174A821841F199
:101A20000003954274EB03013CBF23462A4613484A
:101A300001F04AFF124B07461C689CB1114D01E0B2
:101A400024697CB12368002BFAD02B680BB19C422F
:101A5000F6D1204601220DF10701FFF705FF2469A9
:101A6000002CEFD117B9304603B0F0BD034801F0A8
:101A70001FFF304603B0F0BD40420F002C0E002087
:101A8000A4160020AC16002038B5044601F0CEFEA6
:101A9000012305461A4620462946FFF73DFF084B1D
:101AA0001C682CB163682BB198472469002CF9D1CC
:101AB000284638BD2469002CF4D1284638BD00BF23
:101AC000A416002000B545F247308BB0FFF742FD69
:101AD00001220346092101A89847DDE903320449A0
:101AE00012BA1BBAC1E900230BB05DF804FB00BFBA
:101AF000F01A00200346024A03CA18605960704772
:101B0000F01A002070B500F02DF90C234026194C76
:101B1000FF22A3670E201849FEF790FE32460021EF
:101B2000164801F0BFFD0125002380211348144A07
:101B3000418445700683068782604360136042F8E3
:101B4000043C80F8213080F83B3043620D4B4FF06D
:101B50000056C360C362803B836201F0ADFE4FF468
:101B600080320949094B25642846E664C4F8901080
:101B7000DA6470BD000011504D030020B016002043
:101B8000840010500001105010D0010000201150AE
:101B900001210E20FEF70CBE00220248114600F083
:101BA00001B900BFD0160020044B197021B14FF4C9
:101BB0000032034BC3F89020704700BF011B002088
:101BC000002011500B785B0602D14B78052B00D01A
:101BD00070474B88014ADBB2136070470000115018
:101BE000CB782DE9F04103F0030EBEF1010FC3F3F2
:101BF00001005BD0002791F802C0344C0CF07F024A
:101C00005600898806EBDC1304EB43134FEADC151E
:101C1000D876C1F30A0185F0010083F802C0198368
:101C20005870DF70D3008DBB2948043304EB821C4D
:101C300003EB0008CCF808801F5082B3254BD2007C
:101C40001344CCF80430244B3F311A6821F03F0193
:101C5000BEF1020F08BF4900114419601F4B7719EC
:101C600004EB47179942FA602BD82E4404EB461335
:101C7000D97E82F0A04282F480125B6842EA8162DF
:101C800042F000421A600120BDE8F081104804EBE8
:101C9000821C0344CCF8283040F832704AB9002244
:101CA0000F4904EB4513D9605A60ECE70020BDE80A
:101CB000F081D20002F1A04202F58012CCF824207B
:101CC000C1E7FFF785FCFA68CFE700BFB016002038
:101CD0008000105004001050B41A0020FF0F105064
:101CE0000001105001F0E8BD8C4608B511460748C8
:101CF0001A460CF07F034FEADC1C0CEB430C00EBA4
:101D00004C1000F04FF8012008BD00BFB0160020B5
:101D100011F07F0205D100290CBF02200120064BE3
:101D20009866C909054B01EB420003EB40104FF4E4
:101D30000062002101F0C4BD00201150B016002047
:101D400011F07F0300D17047002205485B0003EBD0
:101D5000D11300EB43106FF40061C27001F0B0BD0D
:101D6000B01600204FF0805209480A4908B50A4BC6
:101D700002600A609968C94311F08051FAD14FF4AA
:101D80008052064801F08EFC0922054B5A6708BDB7
:101D900000200240003002400000024000001050CD
:101DA0000000115000234FF0010C10B580F81AC04C
:101DB0008282C3820161044601F076FD20B14FF4B6
:101DC0000032074BC3F89020204601F061FD10B1AE
:101DD0000123237710BD2046BDE8104001F060BD0F
:101DE00000201150002070472DE9F0414FF000080D
:101DF0001C4D044642462B781B4F1C4E0DE03368A9
:101E000013EB421324D0DB682046984708F1010801
:101E10002B785FFA88F2934206D39342A2EB030336
:101E2000EDD807EB4313EEE754220021104801F0F0
:101E300039FC4FF0FF330E482022041D4360C4E9F3
:101E40000133E360FF21BDE8F041143001F02ABC0A
:101E50004FF0E023D3F8F03DDB0700D500BEBDE82E
:101E6000F08100BF001B0020343B00100810002050
:101E700058150020704700BF704700BF0020704712
:101E80000020704700207047704700BF704700BFB8
:101E9000704700BF704700BF024B5878003818BF2A
:101EA0000120704758150020024B1878C0F38000BD
:101EB000704700BF581500202DE9F047DFF8E49087
:101EC00099F80030FF2B55D10D4600293DD0002157
:101ED00054220646294801F0E5FB0022284C294BF4
:101EE00020461A70FEF728FE274B28481C60284C15
:101EF000FEF730FE204601F091FB264A264B146087
:101F000023B12648AFF30080254B18604FF0000A3C
:101F1000224C53462278DFF89080214F0DE03A683A
:101F200012EB431311D05B687BB198470AF1010AA9
:101F300022785FFA8AF3934211D89342EFD39B1A27
:101F400008EB43135B68002BEFD14FF0E023D3F88D
:101F5000F03DDB0700D500BE0020BDE8F087294634
:101F6000304689F80060FFF7CDFD0028EDD03046FF
:101F7000FFF70EFE0120BDE8F08700BF58150020D6
:101F800050150020021B0020AC150020200E002060
:101F90000C0E0020B015002000000000001B0020E7
:101FA00008100020280E0020343B00102DE9F04FCF
:101FB000DFF8B0928BB099F80030FF2B00F0ED8085
:101FC000A24CA34DDFF898A2DFF89CB22668736993
:101FD000EFF3108272B6D3E8CF0F01210028FAD1B7
:101FE000C3E8401F0028F6D1BFF35F8FB2613046CF
:101FF00007A901F05DF900237269C2E88F3FB36958
:1020000083F31088002800F0C8809DF81D30013B44
:10201000072B00F26B83DFE803F0A5AF939B8C35B1
:102020000A04089B002BD1D009989847CEE79DF869
:10203000201001F07F0605EB460000EBD11090F870
:10204000343023F0010380F8343090F8343023F03A
:10205000040380F83430002E00F0A280027D9AF84C
:1020600000309A4280F091807A4B1B6813EB421348
:1020700000F08C809E699DF82120099B9DF81C0032
:10208000B047A3E79BF80030002B7FD09BF80030CF
:10209000013BDBB28BF800309BF8003003F0FF000F
:1020A000002B93D16A4F9DF81C803B7843F00103CD
:1020B0003B7097F8343060F3000387F8343097F8BA
:1020C000343060F3820387F8343097F8353060F3AA
:1020D000000387F8353097F8353060F3820387F8CE
:1020E000353000F05BFC9DF8203003F06002602A80
:1020F00066D0402A76D003F01F03012B00F0B68093
:10210000022B7BD0002B5BD1202A00F0DB81002A40
:1021100056D19DF82130092B52D8DFE813F0A201E7
:1021200094015100B301510087015D01510052013A
:10213000E5002B78D9077FF549AFFFF7ABFE45E700
:10214000EB78DA077FF542AF0898FFF795FE3DE799
:102150002B78D8077FF53AAF2878C0F3C000FFF797
:1021600097FE33E79DF81C00FFF73EFE00F00CFCE5
:102170009DF82030AB7029E79DF81C00FFF734FE76
:1021800000F002FCFFF782FE20E711D04FF0E023C1
:10219000D3F8F03DDC0700D500BE0BB0BDE8F08FF2
:1021A000099B9DF821209DF81C0000F00BFC0DE719
:1021B000294B5FE7FEF71EF90246002840F07981BF
:1021C0004FF0E023D3F8F03DDE0700D500BE9DF8C8
:1021D0001C000021FFF79CFD80219DF81C00FFF7EB
:1021E00097FDF3E61D4800F0D9FB0121404608AAFF
:1021F000FFF7F8FD00287FF4E9AEE8E79DF824102A
:1022000011F0700FDCD101F07F0607EB4600144B94
:1022100000EBD1101B78007D7600019698424FEAC2
:10222000D11600964FD340F05F810B4E002A00F08C
:102230005F81706900F0B2FB01214046736908AA12
:10224000984700287FF4C2AEC1E700BFB015002058
:102250005815002008100020343B0010E51D001028
:10226000001B0020280E0020021B00209DF82430B7
:102270000F2BACD8AA4A3B441B79127893422DD33A
:10228000A5D1A84E706900F089FB01214046736911
:1022900008AA984700287FF499AE9DF8203013F0E3
:1022A000600694D19DF821300A3B012B8FD800F0B5
:1022B00075FB9DF821300A2B00F0F181404608A9FA
:1022C00000F0F0FA82E6984B1B6803EB4016002AF8
:1022D00000F00E81002E3FF47AAFAAE7924A16680A
:1022E00016EB4316CED172E77B789DF822609E42B2
:1022F00000F04C817B78002B40F0BD817E70002E79
:1023000000F04281701EC0B2FEF774F80346002848
:1023100000F05E814278022A40F05A81C17903F1CF
:102320000906C1F340121201C1F3801142EA4112C1
:102330003146387820F0300002433A705A88CDF8A0
:1023400008809A180092009B8B4240F2A3814B7840
:102350000B2B00F0AE814FF0010C042B40F03881C4
:102360000023009A1E46521A92B201926C4ACDF88E
:102370000CC012781DE06C4A126812EB461800F08F
:102380002781019A05930298D8F810300491984754
:10239000059B08280246049903F1010303D901981B
:1023A000904280F0F8805E4ADEB21278B242C0F00D
:1023B0000F81B242A6EB0202DDD85A4800EB421868
:1023C000DFE77B7840468DF81A300DF11A020123C1
:1023D00008A900F081FAF9E5BDF82200030A013BE3
:1023E000020AC0B20E2B3FF6F2AE01A151F823F063
:1023F00001260010A12400103D260010CF2100105E
:10240000CF2100101F260010A1240010CF210010A2
:10241000CF210010CF210010CF210010CF210010BC
:10242000CF210010CF210010F325001008A800F0E4
:10243000BBFA40469DF82210FFF7AEFB3B7843F015
:1024400002033B70C2E5BDF82230012B7FF4BFAE22
:102450003B78404623F0080308A93B7000F022FABD
:10246000B4E540463B789A0802F00202C3F34013F9
:102470001343ADF81A300DF11A02022308A900F037
:102480002BFAA3E5BDF82230012B7FF4A0AE3B78F8
:10249000404643F0080308A93B7000F003FA95E5B5
:1024A000022A3FF487AEFFF7EDFC024600283FF416
:1024B0008EAE4046538808A900F00EFA00287FF43B
:1024C00085AD84E69DF824300F2B3FF680AE144A8C
:1024D0003B441B79127893421DD2134A166816EBBF
:1024E00043167FF4A6AE72E6002A7FF470AE002693
:1024F0009DF8212002F0FD03012B17D0002A7FF464
:102500005FAE019B009A3B44134493F8343040463D
:10251000C3F34003ADE77FF45AAE024E89E600BF35
:10252000001B0020343B001008100020BDF82230B2
:10253000B3B9012A99F8000000F08880FFF7E8FBA2
:10254000019B009A3B44134493F8342042F002026A
:1025500083F8342093F8342042F0010283F83420C9
:10256000002E3FF433AD706900F018FA7369012151
:1025700008AA40469847002000F010FA97F8353036
:10258000DF073FF523AD99E6FFF780FC404608A939
:1025900000F088F91AE5DDF80CC0BCF1010F00F07D
:1025A0009D80BCF1000F00F08A80002391F802802A
:1025B00004E00671D8B2844540F2818008EB030044
:1025C00057FA80F090F804E00133BEF1FF0FF0D02D
:1025D0004FF0E023D3F8F03DDA0700D500BE4FF00E
:1025E000E023D3F8F03DDB0700D500BE00237B706D
:1025F000EDE5FFF743FC024600287FF45AAFE6E51D
:10260000FDF7F4FE024600283FF4DAAD40461223FF
:1026100008A900F061F900287FF4D8ACD7E5FFF7EE
:102620002FFC024600283FF4D2AD4046137808A99B
:1026300000F052F900287FF4C9ACC8E5BDF82410B9
:10264000FDF7DCFE02460028EFD1C0E50293FFF75C
:1026500077FB019A009B3A441A4492F83410029B8B
:1026600063F3410182F8341092F8341063F30001EF
:1026700082F8341074E700214046FFF795FA40468F
:10268000FFF730FBBB7840460093FFF7ADFB009BA4
:10269000BB7033E6DDF80880FFF7F6FB76E74046CF
:1026A000012308A90DF11A028DF81A6000F014F93F
:1026B0008CE40B7891F803C019444B784DE633460F
:1026C0000F480392019100F06BFD0E4B01991B78AE
:1026D000039AB3421144BFF436AE79E7D8F810003C
:1026E000094B984208BF4FF0020C5EE74FF0E02321
:1026F000D3F8F03DDB077FF569AC00BE66E400BFB0
:102700006C150020001B0020D92D00102DE9F84F7A
:102710000A9F002A40D00C461E4615464FF0000A7C
:10272000DFF87C90DFF87C8018E0204698F80210F3
:1027300099F800B000F004FDE0B121465846FFF7DB
:102740004FFAF0B1A2780AF1010AD10916BF0B9B2A
:102750003A701A702278AA4514441DD06278052A6E
:102760000FD1E17801F00301B1420AD1A27812F051
:10277000700FDAD04FF0E023D3F8F03DDA0700D540
:1027800000BE4FF0E023D3F8F03DDB0702D4002079
:10279000BDE8F88F00BEFAE70120BDE8F88F00BF62
:1027A000280E00205815002038B58B7813F0700FD4
:1027B00008D04FF0E023D3F8F03DDB0700D500BE92
:1027C000002038BD074A084B0C46084691781D7812
:1027D00000F0B6FC0028ECD021462846BDE8384081
:1027E000FFF7FEB958150020280E00200B46064AB8
:1027F00006481168DA09343203F07F0302EB430321
:10280000184400F057BC00BFAC150020581500203C
:102810000B46064A06481168DA09343203F07F0392
:1028200002EB4303184400F06FBC00BFAC1500205E
:102830005815002010B5194801F07F0C00EB4C0032
:1028400000EBD11090F834C01CF0010F08D04FF00D
:10285000E023D3F8F03DDA0700D500BE002010BD1C
:1028600000F1300494F804C00D484CF0010C0078DD
:1028700084F804C0FFF738FA0028F0D14FF0E021C7
:10288000227960F300022271227960F382022271C0
:10289000D1F8F03DDB07E1D500BEDFE75815002099
:1028A000280E002030B50B4C8C46A646054608681D
:1028B00049680023AEE803009CF800102846C9438D
:1028C000C4E90233BDE830401A4601F08001FFF749
:1028D000B1BF00BF181500202DE9F041284F4FF07F
:1028E0000008BE468C46064608684968BA60AEE8ED
:1028F0000300A7F80E801546BCF80620934228BFB7
:102900001346BB819AB11C4633B3DDB197F9003051
:10291000402C28BF4024002B29DB4146234630466B
:10292000184AFFF787FF68B10120BDE8F0819CF8E5
:1029300000101346C943304601F08001FFF77AFFCB
:102940000028F1D14FF0E023D3F8F03DDB0700D5AC
:1029500000BE0020BDE8F0811A46397801F0800100
:1029600023463046FFF766FF0028DDD1EAE722461E
:102970002946044800F0E4FE8021024AF0E700BF47
:1029800018150020D81400200022034BC3E90022B0
:10299000C3E902221A61704718150020014B186123
:1029A000704700BF1815002030B40246044C0025C3
:1029B000234600685168C4E9025530BC03C3704720
:1029C0001815002070B53D4CC90922780646B1EBB8
:1029D000D21F1D4682B017D053B14FF0E023D3F879
:1029E000F03DDB0702D4002002B070BD00BEFAE764
:1029F0002146FFF7E7F823691BB122460321304641
:102A00009847012002B070BD94F90030002B06DB1E
:102A1000A0680028E7D02A46294900F091FEE08905
:102A2000A168E388284480B229448342E081A16000
:102A300016D03F2D14D9A28994F90040131A9BB2E5
:102A4000402B28BF4023002C27DB90424FF0000191
:102A500031D01B4A3046FFF7EDFE0028D1D1BCE74C
:102A6000236923B102213046144A984760B1217886
:102A70000023C94330461A4601F08001FFF7DAFE11
:102A80000028AAD00120BDE701463046FFF740F9F3
:102A900080213046FFF73CF9B3E7904208D01A4650
:102AA0000748019300F04CFE8021054A019BD1E7C5
:102AB00080210022CEE70A46CCE700BF181500208F
:102AC000D81400202DE9F0410446FFF7E5F908B9D4
:102AD000BDE8F081FFF7E8F905460028F8D14FF48A
:102AE000896304FB03F3134EF718F9780029EFD03C
:102AF00010331E44304600F0C9FB3F28E8D9284671
:102B0000F978FFF773FE0028E2D0304600F0BEFBF4
:102B10003F28F97808D9084A284602EBC412402316
:102B2000BDE8F041FFF786BE2846BDE8F041FFF75B
:102B30006FBE00BF901000200C10002010B504469E
:102B4000FFF7AAF908B9002010BDFFF7ADF900287A
:102B5000F9D14FF48962034B02FB0433187900F07A
:102B6000010010BD901000204FF4896208B5034B9E
:102B700002FB003000F070FB08BD00BFA010002079
:102B80002DE9F8434FF6FF734FF489649A4228BF4A
:102B90001A4600FB04F4DFF8788004F11005454480
:102BA000064692B2284600F0CDFB0746FFF774F9BF
:102BB00010B93846BDE8F883FFF776F9814600285A
:102BC000F7D1A04498F80330002BF2D0284600F04B
:102BD0005DFB3F28EDD9484698F80310FFF706FE45
:102BE0000028E6D0284600F051FB3F2898F8031053
:102BF00007D9064A4846402302EBC612FFF71AFEE1
:102C0000D7E74846FFF704FED3E700BF0C100020CB
:102C1000901000202DE9F0410446FFF73DF910B96E
:102C20000020BDE8F081FFF73FF905460028F7D105
:102C30004FF4896604FB06F6DFF8648006F124078A
:102C40004744384600F008FB0028E9D0B044284645
:102C500098F80210FFF7CAFD0028E1D00F4E384661
:102C600006EBC4163146402200F06CFB98F80210C7
:102C7000044668B1034632462846FFF7DBFD50B9EB
:102C80004FF0E023D3F8F03DDB07C9D500BEC7E71E
:102C9000FFF7BEFDC4E72046C3E700BF4C1000208D
:102CA0009010002038B54FF6FF754FF48963AA42A3
:102CB00028BF2A460A4C92B203FB00440546204630
:102CC00000F0FEFB034620461C4600F0C5FA3F28F4
:102CD00001D8204638BD2846FFF79CFF204638BD66
:102CE000B4100020F0B5002483B04FF489620021B5
:102CF000184800F0D7FCFF234FF4E13108221648B2
:102D0000047014480094074643718160827300F197
:102D1000380101234FF40072103000F06DFA0123E6
:102D20004FF4007207F50E71009307F5876607F1FF
:102D3000240000F061FA07F588653046FDF7FCFED7
:102D40002846FDF7F9FEC7E90746C7E90C5403B06A
:102D5000F0BD00BF901000208C1000200A4A116BBB
:102D6000136A61B13BB10023C2E90C33D361002384
:102D70001362012070470120C2E90C337047002B19
:102D8000F7D0D161F3E700BF90100020002210B50A
:102D90000E4C0F48237802600271DA0707D59B07B3
:102DA0000BD5BDE8104001210A4800F053BC10309B
:102DB00000F034FC23789B07F3D4064800F02EFC87
:102DC000BDE810400121034800F044BC8C100020F5
:102DD00090100020B4100020F0B54B7983B0022B86
:102DE00002D18B79022B03D00025284603B0F0BD19
:102DF000274FBB783BB14FF0E023D3F8F03DDB0722
:102E0000F2D500BEF0E78B7806463B700B78CC1805
:102E10006178242908BF092507D036E023781C44AF
:102E200061782B4424299DB207D1AA42F6D2002012
:102E3000FFF748FE284603B0F0BD0B46052916D023
:102E4000042BF4D163790A2BF1D1124B277801932B
:102E500001330093022330461A46E119FFF756FC6E
:102E60000028C8D00E3517FA85F5ADB2DFE7214648
:102E70003046FFF799FC0028BDD0A3787B702378FB
:102E80005A191C44637895B2DAE70B460925D5E751
:102E90009010002092100020137803F06003202B84
:102EA00008D170B5264C938894F800C09C4503D097
:102EB000002070BD002070475378203B032BF7D8CB
:102EC000DFE803F027230D0201292ED003291ED1AC
:102ED0001C4BE3B100205188AFF3008017E00129BB
:102EE00023D0032913D15588174805F0010686F031
:102EF0000101257100F0AEFB144B43B131460020B7
:102F0000C5F34002AFF3008001E0012911D0012098
:102F100070BD01290DD00329F9D10D4B002BF6D03E
:102F200000200C49AFF30080F1E71146FFF7BAFC2F
:102F3000EDE711460723074AFFF7CEFCE7E700BF9E
:102F40009010002000000000B410002000000000DD
:102F500000000000981000202DE9F843354E0C4683
:102F6000F27807468A421D463DD0B3788B4212D094
:102F70004FF0E023D3F8F03DDB0732D40020BDE86A
:102F8000F8832D4B23B12D4800F076F900284DD061
:102F90000020FFF797FDB378A34201D00120EEE7B0
:102FA000274B13B10020AFF300800020FFF732FE63
:102FB0000028F3D1234800F04FF90028EED1002D6E
:102FC000ECD015F03F05E9D13846B178FFF70EFC9B
:102FD0000028E3D02B462A463846B178FFF72AFC72
:102FE000DCE700BECAE79AB2174906F1100000F00C
:102FF00067FA164B002BC4D07379FF2BC1D0002D7C
:10300000BFD0DFF8448008EB050902E0C845B8D01E
:10301000737918F8012B9A42F8D1084800F02CF97E
:103020000028F3D17179AFF30080EFE7AFF30080B0
:10303000AEE700BF9010002000000000A0100020AC
:1030400000000000B41000200C1000200000000060
:1030500010B582B0C9B101280CD80B7853B1144C0B
:10306000012B235402D0012002B010BDFEF724FF33
:103070000028F8D14FF0E023D3F8F03DDB0702D46D
:10308000002002B010BD00BEFAE70124084601A9E5
:10309000ADF80440FEF710FF38B94FF0E023D3F845
:1030A000F03DDA07EDD500BEEBE7014B1C70E8E719
:1030B0004C150020F8B5037813F001041AD10378F9
:1030C00005465A07C3F3800701D52046F8BD0E46D2
:1030D0004FF0FF31304600F0DFFB2B7813F0010496
:1030E0000BD12B785B0709D42B78012443F0040320
:1030F0002B7003E000242046F8BD3C46304600F02B
:10310000D7FB2046F8BD00BF70B50C4605464FF012
:10311000FF31204600F0C0FB2B78C3F380065B072D
:1031200008D52B7813F0010311BF00262A7863F32A
:1031300082022A70204600F0BBFB304670BD00BF03
:10314000C378828803F003000228C2F30A0215D074
:1031500003280AD001281CD1022940F2FF3308BFFE
:103160004FF4806393420DD37047022914BF40236C
:103170004FF48063934205D30120704702290AD09F
:10318000402AF9D94FF0E023D3F8F03DDB0700D512
:1031900000BE00207047B2F5007FEDD0F2E700BF1F
:1031A0000A44914226D291F801C0BCF1050F05D026
:1031B00091F800C061448A42F5D8704700B591F893
:1031C00002C00CF07F0E00EB4E0E4FEADC1C0EF836
:1031D0000C3091F800C061448A4209D991F801C0CD
:1031E000BCF1050FEBD091F800C061448A42F5D8DC
:1031F0005DF804FB704700BF2DE9F041B2F5004FC8
:103200009DF8188024D80446C06817460E461D460F
:1032100018B14FF0FF3100F03FFB206918B14FF0BB
:10322000FF3100F039FB0022C5F30E03E06843EAEA
:10323000C83362812660A780E380228108B100F054
:1032400037FB206908B100F033FB0120BDE8F081B5
:103250000020BDE8F08100BF038942899BB292B291
:103260008088934236BFC2EB40029B1A9B189BB2E8
:10327000984228BF184670470289438990B29BB292
:10328000C01AB0FA80F04009704700BF0389428934
:103290009BB2808892B2934236BFC2EB40029B1A27
:1032A0009B189BB2984286BFC01A80B2002070471C
:1032B00038B5044600690D4618B14FF0FF3100F0F3
:1032C000EBFA2189638989B29BB2A288994236BF01
:1032D000C3EB4200C81A401880B250B3824209D2F0
:1032E00091422CBF891A89188BB29A42638103D804
:1032F0009B1A9BB29A42FBD9E2882168C2F30E0264
:1033000002FB0311284600F01BFA6189012589B2EE
:103310004B1C9BB29942A2880ED9002302FA05F1F8
:103320005B1A9BB22069638108B100F0C1FA28469C
:1033300038BD054663899BB2B3EB420F4FEA4201A9
:10334000F0DBEDE72DE9F047064600698846914637
:1033500018B14FF0FF3100F09FFA338974899BB2A6
:10336000A4B2B588A34236BFC4EB45071F1BFF18A4
:10337000BFB2002F4AD0BD4240D3B94528BFB9469D
:10338000A5421FFA89F703D8641BA4B2A542FBD952
:10339000B6F806A02B1B31689BB2CAF30E029F42FF
:1033A000924602FB041123D913FB02F31FFA83F99F
:1033B0004A4640467D1B00F0C3F9621912FB0AF22F
:1033C000316808EB090092B200F0BAF97289B58849
:1033D00092B2D3199BB29A421AD96A009B1A9BB235
:1033E0003069738108B100F063FA3846BDE8F087B0
:1033F000404607FB02F200F0A3F9E7E7AB422CBF1F
:103400005B1B5B199CB22F467481B6E773899BB234
:10341000B3EB450F4FEA4502E2DBDFE7F8B50446C0
:10342000C0680E4618B14FF0FF3100F035FA25891B
:10343000238961899BB289B2A2888B4236BFC1EBD6
:1034400042015B1A5B189BB29A42ADB208D8E77989
:10345000FF0905D1E06808B100F02AFA3846F8BD46
:10346000954228BF2B4618D39B1A9BB29342FBD29E
:10347000E2882068C2F30E0202FB0300314600F02E
:103480005FF96B1C9BB29D42A28812D900235100A8
:103490005B1A9BB201272381DCE7E2882068C2F334
:1034A0000E0205FB0200314600F04AF90135A28800
:1034B000ABB2B3EB420F4FEA4201EBDBE8E700BFF0
:1034C0002DE9F04F174683B0002A75D00646C06834
:1034D000894618B14FF0FF3100F0DEF9F379B6F804
:1034E00008807289DB09B5881FFA88F892B23CD14E
:1034F000904536BFC2EB4502A8EB0202424492B2AD
:10350000AA425ED2AA1A92B2BA4228BF3A46B6F886
:1035100006B097B27B1B08EB070ACBF30E0B9BB2EE
:103520001FFA8AFAA845444603D3641BA4B2AC42EE
:10353000FBD22D1B3068ADB2BD420BFB040057D34C
:1035400049460BFB07F200F0FBF8B288D0454FEA82
:10355000420302D8BAEB420F03DBAAEB03031FFAC4
:1035600083FA3D46A6F808A02CE0B6F806B0AF42B4
:10357000CBF30E0B2FD2904536BFC2EB4501A8EB23
:103580000201414489B2680039447B1B81429BB2ED
:103590000DDB02EB050A1FFA8AFAAAEB07081FFAED
:1035A00088F8424537D9A8EB00001FFA80F807EBEE
:1035B000080A1FFA8AFAB5E71546284603B0BDE89F
:1035C000F08F0025F0680028F7D000F071F9284648
:1035D00003B0BDE8F08F002DF4D07F1B02EB050A8D
:1035E0000BFB079990462F4600231FFA8AFA99E7AA
:1035F00015FB0BF5ADB22A464946019300F0A0F841
:10360000019B3068E21812FB0BF209EB050192B244
:1036100000F096F899E7404584DCC4E710B504460D
:10362000C06818B14FF0FF3100F036F9206918B1C9
:103630004FF0FF3100F030F90023E068638123810F
:1036400008B100F035F9206908B100F031F9012026
:1036500010BD00BF38B50446C0680D4618B14FF024
:10366000FF3100F019F9206918B14FF0FF3100F077
:1036700013F9E379E06865F3C713E37108B100F06B
:1036800017F9206908B100F013F9012038BD00BF17
:1036900008B51920FCF794FF19234FF0010242EC02
:1036A000443008BD830730B546D08418844604E012
:1036B00003F8011B9D0704D09C46A4456346F7D13F
:1036C00030BD013A0244A2EB0C02032A29D9CCB244
:1036D0000F2A04EB042404EB04442FD9A2F1100CAC
:1036E00003F110052CF00F0CAC44C3E90044C3E90E
:1036F000024410336345F8D112F00C0F02F00F0EA4
:1037000018D02EF0030CAEF104051A469C4442F882
:10371000044B6245FBD125F0030404330EF0030291
:103720002344002ACCD0C9B21A4403F8011B9342A7
:10373000FBD130BD7246F4E70346C6E79646E0E7A4
:10374000844641EA000313F0030349D1403A23D3EE
:103750000B6803604B6843608B688360CB68C36011
:103760000B6903614B6943618B698361CB69C361F9
:103770000B6A03624B6A43628B6A8362CB6AC362E1
:103780000B6B03634B6B43638B6B8363CB6BC363C9
:1037900040304031403ADBD230320BD30B6803600B
:1037A0004B6843608B688360CB68C3601030103116
:1037B000103AF3D20C3205D351F8043B40F8043BE5
:1037C000043AF9D2043208D0D2071CBF11F8013BE9
:1037D00000F8013B01D30B8803806046704700BFAF
:1037E000082A13D38B07B1D010F00303AED0C3F176
:1037F0000403D21ADB071CBF11F8013B00F8013BA0
:10380000A4D331F8023B20F8023B9FE7043AD9D316
:10381000013A11F8013B00F8013BF9D20B78037033
:103820004B7843708B7883706046704720F00301BB
:1038300010F00300C0F1000051F8043B00F1040C4B
:103840004FEACC0C6FF000021CBF22FA0CF21343BB
:103850004FF0010C4CEA0C2C4CEA0C4CA3EB0C0284
:1038600022EA030212EACC1204BF51F8043B0430EE
:10387000F4D0C2F1000102EA0102B2FA82F2C2F10E
:103880001F0200EBD2007047F8B500BF0000000037
:103890005FF800F0450A00205FF800F0E501002025
:1038A0005FF800F0BD0A00205FF800F01D0A00205C
:1038B0005FF800F01D0200205FF800F059020020C0
:1038C0005FF800F0790A00205FF800F07D01002029
:1038D00089160010FD150010311600101D1700107C
:1038E0006916001081150010B11600106D1500103A
:1038F000ED0A0010B5160010A10E0010CD15001035
:103900009D1600104D160010490700107107001099
:08391000C51A0010110200109D
:1039180030313233343536373839414243444546FD
:1039280000000000526173706265727279205069FC
:10393800000000005069636F2055415254204272C4
:1039480069646765000000004344432055415254B0
:10395800000000000A2A2A2A2050414E4943202A02
:103968002A2A0A000A0000004E6F207370696E6CE4
:103978006F636B732061726520617661696C616247
:103988006C650000486172647761726520616C61E2
:10399800726D20256420616C726561647920636CA6
:1039A80061696D6564000000486172642061737329
:1039B8006572740052656C6561736500626F6F743F
:1039C800325F77323571303830000000322E322EB7
:1039D800300000007069636F320000007069636F27
:1039E8005F756172745F62726964676500000000E8
:1039F8004A756E203137203230323600556E686194
:103A08006E646C65642049525120307825780A002C
:103A1800657020253032582077617320616C72659B
:103A280061647920617661696C61626C650000008F
:103A380043616E277420636F6E74696E75652078B4
:103A4800666572206F6E20696E61637469766520A1
:103A580065702025303258004C454400783A0010F3
:103A68002C3900103C3900100000000050390010BB
:103A78000904000009024B000201008032080B0013
:103A880002020200000904000001020200040524E9
:103A98000020010524010001042402060524060073
:103AA800010705810308001009040100020A00004B
:103AB80000070502024000000705820240000000DE
:103AC80012010002EF0201408A2E0A0000010102E1
:103AD8000301000006005250D3F07542BC390010B3
:103AE80006005250E182887FC43900100600525007
:103AF800ABB36053D439001006005250BBFF3CB63C
:103B0800DC39001006005250861C0302E43900100C
:103B1800060052505422A29DF83900100500525058
:103B2800DE65F468C04800100D0A000000000000BF
:103B3800E52C00105D2D00108D2D0010D92D0010E2
:103B4800992E0010592F0010000000000900525053
:083B580000000002603A0010B9
:083B6000E0FBFF7F0100000003
:103B6800DC3A0010E83A0010F43A0010003B00106C
:103B78000C3B0010183B0010243B0010543B001075
:103B88004FF050412DE9F0410027044616461D46E6
:103B9800D1F8008008E0C1E88F7F8CF310883046A8
:103BA800294600F031FEE8B92168EFF3108C72B6AF
:103BB800D1E8CF2F0123002AFAD1C1E8423F002AD9
:103BC800F6D1BFF35F8F94F904302168002BE2DA55
:103BD800002384F80480C1E88F3F8CF3108801200B
:103BE800BDE8F0810020BDE8F08100BF30B5046871
:103BF800EFF3108C72B6D4E8CFEF0125BEF1000FB9
:103C0800F9D1C4E84E5FBEF1000FF4D1BFF35F8F66
:103C180090F904400568002C10DB0021C5E88F1FCF
:103C28008CF310884FF0504595F90050A54201D10A
:103C3800084630BDBDE83040FFF7A2BF4FF0504204
:103C4800126800230271C5E88F3F8CF310880120A9
:103C580030BD00BF70B505460C4600F0D1FD0246E8
:103C68000B464FF47A704FF0FF3E6FF0004CE4FBC8
:103C7800002396457CEB030138BF72462846BDE811
:103C8800704038BF6346FFF77BBF00BF0368EFF3A0
:103C9800108272B6D3E8CFCF0121BCF1000FF9D161
:103CA800C3E84C1FBCF1000FF4D1BFF35F8F4FF096
:103CB800FF0C0023016880F804C0C1E88F3F82F33D
:103CC800108840BF704700BF002108B5134B4FF460
:103CD800707299601248D960196159619961D96106
:103CE800196259629962D962196359639963D963F0
:103CF800196459649964D964196559659965D965D0
:103D0800196659669966D966196759679967D967AF
:103D180000F06EFD034B044A1A6008BD0000105005
:103D2800F0160020B41A0020800110502DE9F04F41
:103D38001F4B85B0D3F858A0BAF1000F22D0002449
:103D480001254FF4E069DFF870801A4F01E0202C5C
:103D580018D00AEA0502611C2346AB46CCB26D00B6
:103D6800002AF4D004F0010203F0FE06164407EB23
:103D780046163046C8F858B000F00AFC28B93AEAA6
:103D88000B0AE4D105B0BDE8F08F00238DF80930A7
:103D9800B37801A88DF80830F38A0121ADF80490B2
:103DA800039300F013FC304600F098FBE7E700BFF0
:103DB80000001150B016002000301150F0B5BB4B78
:103DC80085B0D3F8985015F4003674D0B84BB94C78
:103DD800996A94F83B30B84A022B116000F0D480FD
:103DE800002694F87B30022B00F03B8194F8BB301E
:103DF800022B00F07D8194F8FB30022B00F06C81DF
:103E080094F83B31022B00F0448194F87B31022B6B
:103E180000F0338194F8BB31022B00F0B68194F89E
:103E2800FB31022B00F0A68194F83B32022B00F004
:103E3800968194F87B32022B00F0868194F8BB328D
:103E4800022B00F0768194F8FB32022B00F0668199
:103E580094F83B33022B00F0568194F87B33022B05
:103E680000F0A48094F8BB33022B00F0998194F8F9
:103E7800FB33022B00F0B4803EB9904B1B7823B97A
:103E88004FF400328E4BC3F890204FF44072874BAA
:103E980001219B6C01A8C3F30A03ADF80420029327
:103EA80000F094FBEA064FF40036864C07D5FFF77E
:103EB8003DFF264603E0EA064FF01004F7D4EB0373
:103EC80022D57C4C46F48036A37E002B40F09980A6
:103ED800012394F83A20E370002A40F0AD800123D2
:103EE8004FF4C061784A84F82330ADF8041092E8A2
:103EF800030004AA02E90300194601A800F066FBC2
:103F08004FF400326E4B1A65E90408D46A041DD4D4
:103F18002B042AD4AE4240F0C58105B0F0BD002480
:103F2800624B46F480561C60FFF7CEFE4FF4807358
:103F3800012101A8ADF804308DF8084000F046FBD7
:103F48004FF400225E4B1A656A04E1D54FF4806392
:103F5800012101A8ADF8043000F038FB1022584BBD
:103F680046F480461A652B04D4D54FF4A06301218A
:103F780001A8ADF8043000F029FB4FF40062504B63
:103F880046F400461A65C5E794F83A60002E3FF4F7
:103F980028AF94F83C30002B3FF423AF002304F102
:103FA800200084F83C3000F0C1FA1AE794F87A73DC
:103FB800002F3FF457AF94F87C33002B40F0648116
:103FC80094F8BB33022B40F0F48094F8BA33002BFA
:103FD80040F0EB8094F8FB33022B7FF456AF3E465B
:103FE80094F8FA33002B3FF447AF94F8FC33002BD6
:103FF8003FF44BAF0023354884F8FC3300F096FAC1
:1040080043E70221324B294A1966536E9F07FCD5B4
:104018004FF440520021274800F066FA254800F086
:104028005DFA0222264B5A661A66012394F83A2052
:10403800E370002A3FF453AF254A1366A2F50052F5
:10404800536ED807FCD54FF440520021214800F0A8
:104058004BFA204800F042FA0122194B5A661A66B8
:104068003DE794F87A70002F3FF4C0AE94F87C30A6
:10407800002B40F001813E46B8E694F87A71002F93
:104088003FF4C8AE94F87C31002B40F0ED803E46FA
:10409800C0E694F83A71002F3FF4B7AE94F83C317B
:1040A800002B40F0D9803E46AFE600BF000011501B
:1040B80000000B40B0160020A8160020011B0020AD
:1040C800003011501000020000001050901A00201B
:1040D80000201150D016002094F8FA70002F3FF4F9
:1040E8008FAE94F8FC30002B40F08E803E4687E679
:1040F80094F8BA70002F3FF47EAE94F8BC30002BD1
:104108007AD13E4677E694F83A73002F3FF4A5AE8D
:1041180094F83C33002B57D13E469EE694F8FA7249
:10412800002F3FF495AE94F8FC32002B5CD13E464C
:104138008EE694F8BA72002F3FF485AE94F8BC323C
:10414800002B49D13E467EE694F87A72002F3FF460
:1041580075AE94F87C32002B76D13E466EE694F824
:104168003A72002F3FF465AE94F83C32002B63D1CD
:104178003E465EE694F8FA71002F3FF455AE94F887
:10418800FC31002B50D13E464EE694F8BA71002F10
:104198003FF445AE94F8BC31002B3DD13E463EE697
:1041A80094F8BA33002B3FF462AE94F8BC33002B7A
:1041B80071D194F8FB33022B7FF467AE94F8FA338D
:1041C800002B3FF462AE10E70023394884F83C33F3
:1041D8003E4600F0ABF940E60023364884F8BC328E
:1041E8003E4600F0A3F92EE60023334884F8FC325B
:1041F8003E4600F09BF92BE60023304884F8BC309B
:104208003E4600F093F9F6E500232D4884F8FC308B
:104218003E4600F08BF9F3E500232A4884F8BC31C8
:104228003E4600F083F9FAE50023274884F8FC317C
:104238003E4600F07BF9F7E50023244884F83C3239
:104248003E4600F073F9F4E50023214884F87C32F7
:104258003E4600F06BF9F1E500231E4884F83C3136
:104268003E4600F063F9D0E500231B4884F87C3112
:104278003E4600F05BF9CDE50023184884F87C3011
:104288003E4600F053F9B1E50023154884F87C3325
:1042980000F04CF994E60023124884F8BC3300F08F
:1042A80045F986E7104886EA050100F09DFA00BF47
:1042B800D019002050190020901900205017002014
:1042C800901700205018002090180020D0180020C7
:1042D80010190020D01700201018002010170020F7
:1042E800101A0020501A0020043A00102DE9F04757
:1042F800848A058BC278A54228BF2546171E18BF99
:104308000127641B467882F00102A4B20346C270FA
:10431800848245F4806040EA4730A6BBD3E903268F
:104328006F1E02EB811E55B3052F98BF721C31D941
:1043380002EB811C721CACEB0204022C2AD9324617
:104348004FEA95094FEA890A06EB890852F8044BA7
:1043580042454CF8044BF9D15545A7EB0A070EEB3B
:104368000A040AD016F829600EF829602FB1567889
:10437800012F667001D09278A2701E699C8A2E4423
:104388001E6140F400400CB940F4804001B10004C3
:10439800BDE8F0870EF1FF3E2E4400E0013212F82E
:1043A800014CB2420EF8014FF8D1E6E783680246A5
:1043B800186801B1000C5378C0F30900002B3CD0F9
:1043C8002DE9F041D2E90334461E03EB811E40B3C8
:1043D800052E3BD989014D1C1D44651B022D35D97D
:1043E8007346214600F47F774FEA9008FD1853F88A
:1043F80004CBAB4241F804CBF9D1B842A6EB07068F
:1044080004EB07030EEB07010AD01EF8285004F846
:1044180028502EB14C78012E5C7001D089789970A3
:104428001469D38A04440344D382138B14618342EE
:1044380084BF00239382BDE8F081D38A0344D382EA
:10444800138B834284BF002393827047013C0EEB99
:1044580000011EF8013B714504F8013FF9D1DFE77F
:1044680010B50446836800211B68FFF79FFF636847
:104478001B685B0002D5238B834200D010BD204609
:10448800BDE810400121FFF791BF00BF084B1B6C2E
:1044980013F0020302D18278D20901D100207047BB
:1044A800C07EA0F10200B0FA80F04009704700BF5A
:1044B8000000115008B5FFF7E9FF50B1054A064B57
:1044C800906A1B68A0F54870C01AC6288CBF0020E7
:1044D800012008BD00000B40A81600200023C0E9F9
:1044E80004338376704700BF10B5836809B11C6830
:1044F800214082B1114352050DD51A6854050CD4D8
:10450800084A21F480641C60126C920703D40C23BF
:10451800033BFDD28368196010BD8178024800F022
:1045280063F900BF00001150183A001030B5436815
:10453800002183B004461D68FFF7D8FE134B40F4F2
:104548008052196CA37889070ED55B060ED025F02A
:10455800A04545F000550021204663681D6003B062
:10456800BDE83040FFF7C0BFDB09F0D0A38A002BBD
:10457800EDD0012120460192FFF7B8FE019A25F0FF
:104588000055024345F0A045E5E700BF0000115083
:1045980038B5857E044695B1FFF762FFA38A0BB94B
:1045A800284638BD2046FFF785FF20B10123237731
:1045B8000025284638BD2046FFF7B8FFF8E7817880
:1045C800014800F011F900BF383A00102DE9F04316
:1045D80043780446023B0D4685B0042B13D8DFE828
:1045E80003F00348677042000021784B1A7822F0E4
:1045F80001021A701A7822F002021A7059701A7899
:1046080061F382021A70724B1E687369EFF31082AD
:1046180072B6D3E8CF0F01210028FAD1C3E8401FB2
:104628000028F6D1BFF35F8FB2612146304600F013
:10463800EFF800237269C2E88F3FB36983F31088EB
:1046480048B94FF0E023D3F8F03DDB0708D500BEAA
:1046580005B0BDE8F0832A466178207800F0CCF8F0
:1046680005B0BDE8F0835B4A13780133DBB2137001
:10467800C9E74FF00009584E4B463178DFF86081A2
:10468800564F0FE03A6812EB431305D0DB691BB1B4
:10469800616820789847317809F101095FFA89F350
:1046A8008B4217D89942EDD85B1A08EB4313EDE714
:1046B800464B1A78D707D3D51A7842F004021A70F5
:1046C800A1E7424B1A78D607CAD51A7822F0040215
:1046D8001A7098E73D4E3378580737D4F378DA07DD
:1046E800BED5032300273A4A2178166862688DF8F8
:1046F80004108DF805307369CDF80670CDF80A708E
:10470800ADF80E700292EFF3108272B6D3E8CF0FB5
:1047180001210028FAD1C3E8401F0028F6D1BFF3D1
:104728005F8F3046B26101A900F072F87369C3E87F
:104738008F7FB36983F31088002882D02A469DF8BA
:1047480005109DF8040000F057F889E733784FF01A
:10475800000823F00403337005231D4A8DF8053043
:1047680017682278ADF80E808DF804207B69CDF8A3
:104778000680CDF80A80EFF3108272B6D3E8CF0F27
:1047880001210028FAD1C3E8401F0028F6D1BFF361
:104798005F8F3846BA6101A900F03AF87B69C3E82F
:1047A8008F8FBB6983F3108838B94FF0E023D3F8B3
:1047B800F03DD90792D500BE90E72A469DF805102E
:1047C8009DF8040000F018F888E700BF581500208D
:1047D800B0150020021B0020001B0020081000203C
:1047E800343B0010000000005FF800F009060010DC
:1047F8005FF800F0A53600105FF800F0751E001095
:104808005FF800F0F11100105FF800F0E9100010F7
:104818005FF800F01D3400101000000000000000D8
:10482800000001000000000000000000000002007D
:10483800000000000000000000000300000000006D
:10484800000000000000FF000000000001B54868FB
:1048580001318E460047704609380149884701BD35
:10486800250A001000000000000000000000000001
:104878000000000000000000400E0020B4150020D9
:1048880010000C0000000000000000000000000004
:104898000000000000000000FF0000000000000011
:0448A800000000000C
:1048AC00D3DEFFFFFE010000FF0100008CB8FFFF0C
:0448BC00793512AB8D
:040000051000014D99
:00000001FF
